{"abi":[{"type":"constructor","inputs":[{"name":"_blast","type":"address","internalType":"address"},{"name":"_signer","type":"address","internalType":"address"},{"name":"_threshold","type":"uint256","internalType":"uint256"},{"name":"_amounts","type":"uint256[6]","internalType":"uint256[6]"}],"stateMutability":"nonpayable"},{"type":"receive","stateMutability":"payable"},{"type":"function","name":"amounts","inputs":[{"name":"","type":"uint256","internalType":"uint256"}],"outputs":[{"name":"","type":"uint256","internalType":"uint256"}],"stateMutability":"view"},{"type":"function","name":"claimGas","inputs":[],"outputs":[],"stateMutability":"nonpayable"},{"type":"function","name":"deposit","inputs":[{"name":"choice","type":"bool","internalType":"bool"}],"outputs":[],"stateMutability":"payable"},{"type":"function","name":"experience","inputs":[{"name":"","type":"address","internalType":"address"}],"outputs":[{"name":"","type":"uint256","internalType":"uint256"}],"stateMutability":"view"},{"type":"function","name":"flip","inputs":[{"name":"id","type":"uint64","internalType":"uint64"},{"name":"randomBytes","type":"bytes32","internalType":"bytes32"}],"outputs":[],"stateMutability":"nonpayable"},{"type":"function","name":"flipId","inputs":[],"outputs":[{"name":"","type":"uint256","internalType":"uint256"}],"stateMutability":"view"},{"type":"function","name":"level","inputs":[{"name":"","type":"address","internalType":"address"}],"outputs":[{"name":"","type":"uint256","internalType":"uint256"}],"stateMutability":"view"},{"type":"function","name":"levelOneOrHigher","inputs":[{"name":"","type":"uint256","internalType":"uint256"}],"outputs":[{"name":"","type":"address","internalType":"address"}],"stateMutability":"view"},{"type":"function","name":"owner","inputs":[],"outputs":[{"name":"","type":"address","internalType":"address"}],"stateMutability":"view"},{"type":"function","name":"renounceOwnership","inputs":[],"outputs":[],"stateMutability":"nonpayable"},{"type":"function","name":"requests","inputs":[{"name":"","type":"uint256","internalType":"uint256"}],"outputs":[{"name":"id","type":"uint256","internalType":"uint256"},{"name":"flipAmount","type":"uint256","internalType":"uint256"},{"name":"requester","type":"address","internalType":"address"},{"name":"choice","type":"bool","internalType":"bool"}],"stateMutability":"view"},{"type":"function","name":"setFlipAmounts","inputs":[{"name":"_amounts","type":"uint256[6]","internalType":"uint256[6]"}],"outputs":[],"stateMutability":"nonpayable"},{"type":"function","name":"setPointsOperator","inputs":[{"name":"_blastPoints","type":"address","internalType":"address"},{"name":"_pointsOperator","type":"address","internalType":"address"}],"outputs":[],"stateMutability":"nonpayable"},{"type":"function","name":"setThreshold","inputs":[{"name":"_threshold","type":"uint256","internalType":"uint256"}],"outputs":[],"stateMutability":"nonpayable"},{"type":"function","name":"stats","inputs":[{"name":"","type":"address","internalType":"address"}],"outputs":[{"name":"lastTen","type":"uint32","internalType":"uint32"},{"name":"numWins","type":"uint32","internalType":"uint32"},{"name":"numLosses","type":"uint32","internalType":"uint32"},{"name":"numHeads","type":"uint32","internalType":"uint32"},{"name":"numTails","type":"uint32","internalType":"uint32"},{"name":"streak","type":"uint8","internalType":"uint8"}],"stateMutability":"view"},{"type":"function","name":"threshold","inputs":[],"outputs":[{"name":"","type":"uint256","internalType":"uint256"}],"stateMutability":"view"},{"type":"function","name":"transferOwnership","inputs":[{"name":"newOwner","type":"address","internalType":"address"}],"outputs":[],"stateMutability":"nonpayable"},{"type":"function","name":"userFlipId","inputs":[{"name":"","type":"address","internalType":"address"}],"outputs":[{"name":"","type":"uint256","internalType":"uint256"}],"stateMutability":"view"},{"type":"function","name":"vrfSigner","inputs":[],"outputs":[{"name":"","type":"address","internalType":"address"}],"stateMutability":"view"},{"type":"function","name":"withdraw","inputs":[],"outputs":[],"stateMutability":"payable"},{"type":"event","name":"Deposit","inputs":[{"name":"user","type":"address","indexed":true,"internalType":"address"},{"name":"flipId","type":"uint256","indexed":false,"internalType":"uint256"}],"anonymous":false},{"type":"event","name":"LevelUp","inputs":[{"name":"user","type":"address","indexed":true,"internalType":"address"},{"name":"level","type":"uint256","indexed":false,"internalType":"uint256"}],"anonymous":false},{"type":"event","name":"OwnershipTransferred","inputs":[{"name":"previousOwner","type":"address","indexed":true,"internalType":"address"},{"name":"newOwner","type":"address","indexed":true,"internalType":"address"}],"anonymous":false},{"type":"event","name":"Result","inputs":[{"name":"user","type":"address","indexed":true,"internalType":"address"},{"name":"choice","type":"bool","indexed":false,"internalType":"bool"},{"name":"result","type":"bool","indexed":false,"internalType":"bool"},{"name":"amount","type":"uint256","indexed":false,"internalType":"uint256"}],"anonymous":false},{"type":"error","name":"OwnableInvalidOwner","inputs":[{"name":"owner","type":"address","internalType":"address"}]},{"type":"error","name":"OwnableUnauthorizedAccount","inputs":[{"name":"account","type":"address","internalType":"address"}]}],"bytecode":{"object":"0x60806040523480156200001157600080fd5b50604051620017c1380380620017c1833981016040819052620000349162000257565b33806200005b57604051631e4fbdf760e01b81526000600482015260240160405180910390fd5b62000066816200017a565b50600180546001600160a01b0319166001600160a01b03861690811790915560408051634e606c4760e01b81529051634e606c479160048082019260009290919082900301818387803b158015620000bd57600080fd5b505af1158015620000d2573d6000803e3d6000fd5b50505050600160009054906101000a90046001600160a01b03166001600160a01b0316637114177a6040518163ffffffff1660e01b8152600401600060405180830381600087803b1580156200012757600080fd5b505af11580156200013c573d6000803e3d6000fd5b5050600b80546001600160a01b0319166001600160a01b038716179055505060088290556200016f6002826006620001ca565b50505050506200030f565b600080546001600160a01b038381166001600160a01b0319831681178455604051919092169283917f8be0079c531659141344cd1fd0a4f28419497f9722a3daafe3b4186f6b6457e09190a35050565b8260068101928215620001fb579160200282015b82811115620001fb578251825591602001919060010190620001de565b50620002099291506200020d565b5090565b5b808211156200020957600081556001016200020e565b80516001600160a01b03811681146200023c57600080fd5b919050565b634e487b7160e01b600052604160045260246000fd5b6000806000806101208086880312156200027057600080fd5b6200027b8662000224565b945060206200028c81880162000224565b94506040870151935087607f880112620002a557600080fd5b60405160c081016001600160401b0381118282101715620002ca57620002ca62000241565b604052918701918089841115620002e057600080fd5b606089015b84811015620002fe5780518252908301908301620002e5565b505080935050505092959194509250565b6114a2806200031f6000396000f3fe6080604052600436106101225760003560e01c806381d12c58116100a0578063c57273c211610064578063c57273c2146103f0578063d16ef1b514610403578063d41b6db614610430578063e220831d1461045d578063f2fde38b1461047d57600080fd5b806381d12c58146102715780638bcdcbf3146102f35780638da5cb5b1461039d578063960bfe04146103bb578063a95d6b1c146103db57600080fd5b806342cde4e8116100e757806342cde4e8146101f057806345f0a44f146102065780635382fc261461022657806355485cc514610246578063715018a61461025c57600080fd5b80626457771461012e57806318ca6d6c1461016b5780632924db5d1461018b57806331eac793146101c65780633ccfd60b146101e857600080fd5b3661012957005b600080fd5b34801561013a57600080fd5b5061014e6101493660046111f0565b61049d565b6040516001600160a01b0390911681526020015b60405180910390f35b34801561017757600080fd5b50600b5461014e906001600160a01b031681565b34801561019757600080fd5b506101b86101a6366004611225565b600f6020526000908152604090205481565b604051908152602001610162565b3480156101d257600080fd5b506101e66101e1366004611247565b6104c7565b005b6101e66106ce565b3480156101fc57600080fd5b506101b860085481565b34801561021257600080fd5b506101b86102213660046111f0565b61076e565b34801561023257600080fd5b506101e6610241366004611280565b610785565b34801561025257600080fd5b506101b860095481565b34801561026857600080fd5b506101e661079e565b34801561027d57600080fd5b506102c261028c3660046111f0565b6010602052600090815260409020805460018201546002909201549091906001600160a01b03811690600160a01b900460ff1684565b604051610162949392919093845260208401929092526001600160a01b031660408301521515606082015260800190565b3480156102ff57600080fd5b5061035b61030e366004611225565b600e6020526000908152604090205463ffffffff808216916401000000008104821691600160401b8204811691600160601b8104821691600160801b82041690600160a01b900460ff1686565b6040805163ffffffff97881681529587166020870152938616938501939093529084166060840152909216608082015260ff90911660a082015260c001610162565b3480156103a957600080fd5b506000546001600160a01b031661014e565b3480156103c757600080fd5b506101e66103d63660046111f0565b6107b2565b3480156103e757600080fd5b506101e66107bf565b6101e66103fe36600461130c565b61085c565b34801561040f57600080fd5b506101b861041e366004611225565b600d6020526000908152604090205481565b34801561043c57600080fd5b506101b861044b366004611225565b600c6020526000908152604090205481565b34801561046957600080fd5b506101e661047836600461132e565b610a73565b34801561048957600080fd5b506101e6610498366004611225565b610ada565b600a81815481106104ad57600080fd5b6000918252602090912001546001600160a01b0316905081565b600b546001600160a01b0316331461051f5760405162461bcd60e51b81526020600482015260166024820152753ab730baba3437b934bd32b2103932b8bab2b9ba32b960511b60448201526064015b60405180910390fd5b67ffffffffffffffff82166000908152601060205260408120600181015460029182015490926001600160a01b03821692600160a01b90920460ff16916105669086611377565b60408051841515808252921560208201819052918101879052909250908214906001600160a01b038516907f2afadff3ac4aa3323ea0a8a6161f11227b249516d9889715a4eae4a1993137ea9060600160405180910390a26001600160a01b0384166000908152600f6020908152604080832083905567ffffffffffffffff8a16835260109091528120818155600181019190915560020180546001600160a81b0319169055610617338483610b15565b610622848683610f71565b80156106c55760006001600160a01b03851661063f8760026113a1565b604051600081818185875af1925050503d806000811461067b576040519150601f19603f3d011682016040523d82523d6000602084013e610680565b606091505b50509050806106c35760405162461bcd60e51b815260206004820152600f60248201526e1d1c985b9cd9995c8819985a5b1959608a1b6044820152606401610516565b505b50505050505050565b6106d6611120565b600080546040516001600160a01b039091169047908381818185875af1925050503d8060008114610723576040519150601f19603f3d011682016040523d82523d6000602084013e610728565b606091505b505090508061076b5760405162461bcd60e51b815260206004820152600f60248201526e1d1c985b9cd9995c8819985a5b1959608a1b6044820152606401610516565b50565b6002816006811061077e57600080fd5b0154905081565b61078d611120565b61079a600282600661119d565b5050565b6107a6611120565b6107b0600061114d565b565b6107ba611120565b600855565b6107c7611120565b6001546001600160a01b031663662aa11d306107eb6000546001600160a01b031690565b6040516001600160e01b031960e085901b1681526001600160a01b039283166004820152911660248201526044016020604051808303816000875af1158015610838573d6000803e3d6000fd5b505050506040513d601f19601f8201168201806040525081019061076b91906113be565b336000908152600f6020526040902054156108c45760405162461bcd60e51b815260206004820152602260248201527f6163636f756e7473206d75737420666c69702061667465722061206465706f736044820152611a5d60f21b6064820152608401610516565b6008544710156109165760405162461bcd60e51b815260206004820152601c60248201527f666c697070696e672069732063757272656e746c7920706175736564000000006044820152606401610516565b600254341480610927575060035434145b80610933575060045434145b8061093f575060055434145b8061094b575060065434145b80610957575060075434145b6109995760405162461bcd60e51b81526020600482015260136024820152721a5b9d985b1a5908199b1a5c08185b5bdd5b9d606a1b6044820152606401610516565b60098054336000818152600f6020908152604080832085905580516080810182528581523481840190815281830186815289151560608401908152978652601090945293829020905181559251600184015590516002909201805494511515600160a01b026001600160a81b03199095166001600160a01b039390931692909217939093179055915490517fe1fffcc4923d04b559f4d29a8bfc6cda04eb5b0d3c460751c2402c5c5cc9109c91610a539190815260200190565b60405180910390a260098054906000610a6b836113d7565b919050555050565b610a7b611120565b6040516336b91f2b60e01b81526001600160a01b0382811660048301528316906336b91f2b90602401600060405180830381600087803b158015610abe57600080fd5b505af1158015610ad2573d6000803e3d6000fd5b505050505050565b610ae2611120565b6001600160a01b038116610b0c57604051631e4fbdf760e01b815260006004820152602401610516565b61076b8161114d565b306000818152600e602052604090208054600281901b620ffffc1663ffffffff1990911617905581610b48576000610b4b565b60015b60ff16600184610b5c576000610b5f565b60015b6001600160a01b038481166000908152600e6020526040808220805463ffffffff1980821663ffffffff92831660ff9890981690981b9890981716949094179490941790925587168152208054600281901b620ffffc16921691909117905581610bca576000610bcd565b60015b60ff16600184610bde576000610be1565b60015b6001600160a01b0387166000908152600e60205260409020805463ffffffff19811663ffffffff91821660ff9490941690941b9490941793909316171790819055600160a01b9004600781901c60019081161490607f168415610ce3576001600160a01b0383166000908152600e602052604090208054600160601b900463ffffffff1690600c610c71836113f0565b82546101009290920a63ffffffff8181021990931691831602179091556001600160a01b0388166000908152600e602052604090208054600160601b90049091169150600c610cbf836113f0565b91906101000a81548163ffffffff021916908363ffffffff16021790555050610d84565b6001600160a01b0383166000908152600e602052604090208054600160801b900463ffffffff16906010610d16836113f0565b82546101009290920a63ffffffff8181021990931691831602179091556001600160a01b0388166000908152600e602052604090208054600160801b900490911691506010610d64836113f0565b91906101000a81548163ffffffff021916908363ffffffff160217905550505b8315610e7e576001600160a01b0383166000908152600e602052604090208054640100000000900463ffffffff16906004610dbe836113f0565b82546101009290920a63ffffffff8181021990931691831602179091556001600160a01b0388166000908152600e602052604090208054640100000000900490911691506004610e0d836113f0565b91906101000a81548163ffffffff021916908363ffffffff160217905550508115610e445780610e3c81611413565b915050610e48565b5060015b6001600160a01b0386166000908152600e60205260409020805460ff60a01b1916600160a01b6080841760ff1602179055610ad2565b6001600160a01b0383166000908152600e602052604090208054600160401b900463ffffffff16906008610eb1836113f0565b82546101009290920a63ffffffff8181021990931691831602179091556001600160a01b0388166000908152600e602052604090208054600160401b900490911691506008610eff836113f0565b91906101000a81548163ffffffff021916908363ffffffff1602179055505081610f355780610f2d81611413565b915050610f39565b5060015b6001600160a01b0386166000908152600e60205260409020805460ff8316600160a01b0260ff60a01b19909116179055505050505050565b8015610fa6576001600160a01b0383166000908152600d602052604081208054600a9290610fa0908490611432565b90915550505b610fb766038d7ea4c6800083611445565b6001600160a01b0384166000908152600d602052604081208054909190610fdf908490611432565b90915550506001600160a01b0383166000908152600d60205260409020546101f41161111b576001600160a01b0383166000908152600c6020526040812054900361107057600a80546001810182556000919091527fc65a7bb8d6351c1cf70c95a316cc6a92839c986682d98bc35f958f4883f9d2a80180546001600160a01b0319166001600160a01b0385161790555b6001600160a01b0383166000908152600c60205260408120805460019290611099908490611432565b90915550506001600160a01b0383166000908152600d6020526040812080546101f492906110c8908490611459565b90915550506001600160a01b0383166000818152600c60209081526040918290205491519182527f91e51c29e7e87a74ad3b8ccba98538970f50a4309242735467f41e27c6b0fbac910160405180910390a25b505050565b6000546001600160a01b031633146107b05760405163118cdaa760e01b8152336004820152602401610516565b600080546001600160a01b038381166001600160a01b0319831681178455604051919092169283917f8be0079c531659141344cd1fd0a4f28419497f9722a3daafe3b4186f6b6457e09190a35050565b82600681019282156111cb579160200282015b828111156111cb5782518255916020019190600101906111b0565b506111d79291506111db565b5090565b5b808211156111d757600081556001016111dc565b60006020828403121561120257600080fd5b5035919050565b80356001600160a01b038116811461122057600080fd5b919050565b60006020828403121561123757600080fd5b61124082611209565b9392505050565b6000806040838503121561125a57600080fd5b823567ffffffffffffffff8116811461127257600080fd5b946020939093013593505050565b600060c0828403121561129257600080fd5b82601f8301126112a157600080fd5b60405160c0810181811067ffffffffffffffff821117156112d257634e487b7160e01b600052604160045260246000fd5b6040528060c08401858111156112e757600080fd5b845b818110156113015780358352602092830192016112e9565b509195945050505050565b60006020828403121561131e57600080fd5b8135801515811461124057600080fd5b6000806040838503121561134157600080fd5b61134a83611209565b915061135860208401611209565b90509250929050565b634e487b7160e01b600052601260045260246000fd5b60008261138657611386611361565b500690565b634e487b7160e01b600052601160045260246000fd5b80820281158282048414176113b8576113b861138b565b92915050565b6000602082840312156113d057600080fd5b5051919050565b6000600182016113e9576113e961138b565b5060010190565b600063ffffffff8083168181036114095761140961138b565b6001019392505050565b600060ff821660ff81036114295761142961138b565b60010192915050565b808201808211156113b8576113b861138b565b60008261145457611454611361565b500490565b818103818111156113b8576113b861138b56fea2646970667358221220df3c0d4d756743a32682491c7cf6dc03426a1244c54599b610bc0189ee54aef964736f6c63430008140033","linkReferences":{}},"methodIdentifiers":{"amounts(uint256)":"45f0a44f","claimGas()":"a95d6b1c","deposit(bool)":"c57273c2","experience(address)":"d16ef1b5","flip(uint64,bytes32)":"31eac793","flipId()":"55485cc5","level(address)":"d41b6db6","levelOneOrHigher(uint256)":"00645777","owner()":"8da5cb5b","renounceOwnership()":"715018a6","requests(uint256)":"81d12c58","setFlipAmounts(uint256[6])":"5382fc26","setPointsOperator(address,address)":"e220831d","setThreshold(uint256)":"960bfe04","stats(address)":"8bcdcbf3","threshold()":"42cde4e8","transferOwnership(address)":"f2fde38b","userFlipId(address)":"2924db5d","vrfSigner()":"18ca6d6c","withdraw()":"3ccfd60b"},"id":22}