{"abi":[{"type":"constructor","inputs":[{"name":"_blast","type":"address","internalType":"address"},{"name":"_entropy","type":"address","internalType":"address"},{"name":"_provider","type":"address","internalType":"address"},{"name":"_threshold","type":"uint256","internalType":"uint256"},{"name":"_amounts","type":"uint256[6]","internalType":"uint256[6]"}],"stateMutability":"nonpayable"},{"type":"receive","stateMutability":"payable"},{"type":"function","name":"amounts","inputs":[{"name":"","type":"uint256","internalType":"uint256"}],"outputs":[{"name":"","type":"uint256","internalType":"uint256"}],"stateMutability":"view"},{"type":"function","name":"claimGas","inputs":[],"outputs":[],"stateMutability":"nonpayable"},{"type":"function","name":"deposit","inputs":[{"name":"userRandom","type":"bytes32","internalType":"bytes32"},{"name":"userCommitment","type":"bytes32","internalType":"bytes32"},{"name":"choice","type":"bool","internalType":"bool"}],"outputs":[],"stateMutability":"payable"},{"type":"function","name":"entropyProvider","inputs":[],"outputs":[{"name":"","type":"address","internalType":"address"}],"stateMutability":"view"},{"type":"function","name":"experience","inputs":[{"name":"","type":"address","internalType":"address"}],"outputs":[{"name":"","type":"uint256","internalType":"uint256"}],"stateMutability":"view"},{"type":"function","name":"flip","inputs":[{"name":"sequenceNumber","type":"uint64","internalType":"uint64"},{"name":"providerRandom","type":"bytes32","internalType":"bytes32"}],"outputs":[],"stateMutability":"nonpayable"},{"type":"function","name":"level","inputs":[{"name":"","type":"address","internalType":"address"}],"outputs":[{"name":"","type":"uint256","internalType":"uint256"}],"stateMutability":"view"},{"type":"function","name":"levelOneOrHigher","inputs":[{"name":"","type":"uint256","internalType":"uint256"}],"outputs":[{"name":"","type":"address","internalType":"address"}],"stateMutability":"view"},{"type":"function","name":"manualReset","inputs":[{"name":"user","type":"address","internalType":"address"}],"outputs":[],"stateMutability":"nonpayable"},{"type":"function","name":"owner","inputs":[],"outputs":[{"name":"","type":"address","internalType":"address"}],"stateMutability":"view"},{"type":"function","name":"renounceOwnership","inputs":[],"outputs":[],"stateMutability":"nonpayable"},{"type":"function","name":"requests","inputs":[{"name":"","type":"uint256","internalType":"uint256"}],"outputs":[{"name":"sequenceNumber","type":"uint64","internalType":"uint64"},{"name":"flipAmount","type":"uint256","internalType":"uint256"},{"name":"randomNumber","type":"bytes32","internalType":"bytes32"},{"name":"requester","type":"address","internalType":"address"},{"name":"choice","type":"bool","internalType":"bool"}],"stateMutability":"view"},{"type":"function","name":"sequenceNumbers","inputs":[{"name":"","type":"address","internalType":"address"}],"outputs":[{"name":"","type":"uint64","internalType":"uint64"}],"stateMutability":"view"},{"type":"function","name":"setEntropy","inputs":[{"name":"_entropy","type":"address","internalType":"address"},{"name":"_provider","type":"address","internalType":"address"}],"outputs":[],"stateMutability":"nonpayable"},{"type":"function","name":"setFlipAmounts","inputs":[{"name":"_amounts","type":"uint256[6]","internalType":"uint256[6]"}],"outputs":[],"stateMutability":"nonpayable"},{"type":"function","name":"setPointsOperator","inputs":[{"name":"_blastPoints","type":"address","internalType":"address"},{"name":"_pointsOperator","type":"address","internalType":"address"}],"outputs":[],"stateMutability":"nonpayable"},{"type":"function","name":"setThreshold","inputs":[{"name":"_threshold","type":"uint256","internalType":"uint256"}],"outputs":[],"stateMutability":"nonpayable"},{"type":"function","name":"stats","inputs":[{"name":"","type":"address","internalType":"address"}],"outputs":[{"name":"lastTen","type":"uint32","internalType":"uint32"},{"name":"numWins","type":"uint32","internalType":"uint32"},{"name":"numLosses","type":"uint32","internalType":"uint32"},{"name":"numHeads","type":"uint32","internalType":"uint32"},{"name":"numTails","type":"uint32","internalType":"uint32"},{"name":"streak","type":"uint8","internalType":"uint8"}],"stateMutability":"view"},{"type":"function","name":"threshold","inputs":[],"outputs":[{"name":"","type":"uint256","internalType":"uint256"}],"stateMutability":"view"},{"type":"function","name":"transferOwnership","inputs":[{"name":"newOwner","type":"address","internalType":"address"}],"outputs":[],"stateMutability":"nonpayable"},{"type":"function","name":"withdraw","inputs":[],"outputs":[],"stateMutability":"payable"},{"type":"event","name":"Deposit","inputs":[{"name":"user","type":"address","indexed":true,"internalType":"address"},{"name":"sequenceNumber","type":"uint64","indexed":false,"internalType":"uint64"}],"anonymous":false},{"type":"event","name":"LevelUp","inputs":[{"name":"user","type":"address","indexed":true,"internalType":"address"},{"name":"level","type":"uint256","indexed":false,"internalType":"uint256"}],"anonymous":false},{"type":"event","name":"OwnershipTransferred","inputs":[{"name":"previousOwner","type":"address","indexed":true,"internalType":"address"},{"name":"newOwner","type":"address","indexed":true,"internalType":"address"}],"anonymous":false},{"type":"event","name":"Result","inputs":[{"name":"user","type":"address","indexed":true,"internalType":"address"},{"name":"choice","type":"bool","indexed":false,"internalType":"bool"},{"name":"result","type":"bool","indexed":false,"internalType":"bool"},{"name":"amount","type":"uint256","indexed":false,"internalType":"uint256"}],"anonymous":false},{"type":"error","name":"OwnableInvalidOwner","inputs":[{"name":"owner","type":"address","internalType":"address"}]},{"type":"error","name":"OwnableUnauthorizedAccount","inputs":[{"name":"account","type":"address","internalType":"address"}]}],"bytecode":{"object":"0x60806040523480156200001157600080fd5b5060405162001bdf38038062001bdf83398101604081905262000034916200026d565b33806200005b57604051631e4fbdf760e01b81526000600482015260240160405180910390fd5b620000668162000190565b50600180546001600160a01b0319166001600160a01b03871690811790915560408051634e606c4760e01b81529051634e606c479160048082019260009290919082900301818387803b158015620000bd57600080fd5b505af1158015620000d2573d6000803e3d6000fd5b50505050600160009054906101000a90046001600160a01b03166001600160a01b0316637114177a6040518163ffffffff1660e01b8152600401600060405180830381600087803b1580156200012757600080fd5b505af11580156200013c573d6000803e3d6000fd5b5050600280546001600160a01b038089166001600160a01b031992831617909255600b80549288169290911691909117905550506009829055620001846003826006620001e0565b50505050505062000338565b600080546001600160a01b038381166001600160a01b0319831681178455604051919092169283917f8be0079c531659141344cd1fd0a4f28419497f9722a3daafe3b4186f6b6457e09190a35050565b826006810192821562000211579160200282015b8281111562000211578251825591602001919060010190620001f4565b506200021f92915062000223565b5090565b5b808211156200021f576000815560010162000224565b80516001600160a01b03811681146200025257600080fd5b919050565b634e487b7160e01b600052604160045260246000fd5b60008060008060006101408087890312156200028857600080fd5b62000293876200023a565b95506020620002a48189016200023a565b9550620002b4604089016200023a565b94506060880151935088609f890112620002cd57600080fd5b60405160c081016001600160401b0381118282101715620002f257620002f262000257565b60405291880191808a8411156200030857600080fd5b60808a015b848110156200032657805182529083019083016200030d565b50508093505050509295509295909350565b61189780620003486000396000f3fe60806040526004361061012d5760003560e01c80638bcdcbf3116100ab578063cedc29111161006f578063cedc291114610407578063d16ef1b514610427578063d41b6db614610454578063e1fab22714610481578063e220831d146104cf578063f2fde38b146104ef57600080fd5b80638bcdcbf3146102f75780638da5cb5b146103a1578063960bfe04146103bf578063a7b10884146103df578063a95d6b1c146103f257600080fd5b806345f0a44f116100f257806345f0a44f146101e45780635382fc26146102045780635bf414ac14610224578063715018a61461024457806381d12c581461025957600080fd5b80626457771461013957806331eac793146101765780633ccfd60b1461019857806340ef7267146101a057806342cde4e8146101c057600080fd5b3661013457005b600080fd5b34801561014557600080fd5b5061015961015436600461156c565b61050f565b6040516001600160a01b0390911681526020015b60405180910390f35b34801561018257600080fd5b5061019661019136600461159a565b610539565b005b610196610809565b3480156101ac57600080fd5b506101966101bb3660046115e2565b610887565b3480156101cc57600080fd5b506101d660095481565b60405190815260200161016d565b3480156101f057600080fd5b506101d66101ff36600461156c565b6108bd565b34801561021057600080fd5b5061019661021f366004611615565b6108d4565b34801561023057600080fd5b50600b54610159906001600160a01b031681565b34801561025057600080fd5b506101966108ed565b34801561026557600080fd5b506102ba61027436600461156c565b60106020526000908152604090208054600182015460028301546003909301546001600160401b039092169290916001600160a01b03811690600160a01b900460ff1685565b604080516001600160401b0390961686526020860194909452928401919091526001600160a01b031660608301521515608082015260a00161016d565b34801561030357600080fd5b5061035f6103123660046116a0565b600e6020526000908152604090205463ffffffff808216916401000000008104821691600160401b8204811691600160601b8104821691600160801b82041690600160a01b900460ff1686565b6040805163ffffffff97881681529587166020870152938616938501939093529084166060840152909216608082015260ff90911660a082015260c00161016d565b3480156103ad57600080fd5b506000546001600160a01b0316610159565b3480156103cb57600080fd5b506101966103da36600461156c565b610901565b6101966103ed3660046116c2565b61090e565b3480156103fe57600080fd5b50610196610c45565b34801561041357600080fd5b506101966104223660046116a0565b610ce2565b34801561043357600080fd5b506101d66104423660046116a0565b600d6020526000908152604090205481565b34801561046057600080fd5b506101d661046f3660046116a0565b600c6020526000908152604090205481565b34801561048d57600080fd5b506104b761049c3660046116a0565b600f602052600090815260409020546001600160401b031681565b6040516001600160401b03909116815260200161016d565b3480156104db57600080fd5b506101966104ea3660046115e2565b610def565b3480156104fb57600080fd5b5061019661050a3660046116a0565b610e56565b600a818154811061051f57600080fd5b6000918252602090912001546001600160a01b0316905081565b6001600160401b0382166000908152601060205260409020600301546001600160a01b031633146105aa5760405162461bcd60e51b81526020600482015260166024820152753ab730baba3437b934bd32b2103932b8bab2b9ba32b960511b60448201526064015b60405180910390fd5b60028054600b54336000908152600f60209081526040808320546001600160401b0390811684526010909252808320909501549451639371df5160e01b81526001600160a01b039384166004820152908716602482015260448101949094526064840185905292911690639371df51906084016020604051808303816000875af115801561063c573d6000803e3d6000fd5b505050506040513d601f19601f820116820180604052508101906106609190611700565b6001600160401b03841660009081526010602052604081206001810154600390910154929350916001600160a01b03811691600160a01b90910460ff16906106a960028661172f565b60408051841515808252921560208201819052918101879052909250908214906001600160a01b038516907f2afadff3ac4aa3323ea0a8a6161f11227b249516d9889715a4eae4a1993137ea9060600160405180910390a26001600160a01b0384166000908152600f60209081526040808320805467ffffffffffffffff199081169091556001600160401b038c168452601090925282208054909116815560018101829055600281019190915560030180546001600160a81b0319169055610773338483610e91565b61077e8486836112ed565b80156107ff5760006001600160a01b03851661079b876002611759565b604051600081818185875af1925050503d80600081146107d7576040519150601f19603f3d011682016040523d82523d6000602084013e6107dc565b606091505b50509050806107fd5760405162461bcd60e51b81526004016105a190611776565b505b5050505050505050565b61081161149c565b600080546040516001600160a01b039091169047908381818185875af1925050503d806000811461085e576040519150601f19603f3d011682016040523d82523d6000602084013e610863565b606091505b50509050806108845760405162461bcd60e51b81526004016105a190611776565b50565b61088f61149c565b600280546001600160a01b039384166001600160a01b031991821617909155600b8054929093169116179055565b600381600681106108cd57600080fd5b0154905081565b6108dc61149c565b6108e96003826006611519565b5050565b6108f561149c565b6108ff60006114c9565b565b61090961149c565b600955565b336000908152600f60205260409020546001600160401b03161561097f5760405162461bcd60e51b815260206004820152602260248201527f6163636f756e7473206d75737420666c69702061667465722061206465706f736044820152611a5d60f21b60648201526084016105a1565b6009544710156109d15760405162461bcd60e51b815260206004820152601c60248201527f666c697070696e672069732063757272656e746c79207061757365640000000060448201526064016105a1565b6003543414806109e2575060045434145b806109ee575060055434145b806109fa575060065434145b80610a06575060075434145b80610a12575060085434145b610a545760405162461bcd60e51b81526020600482015260136024820152721a5b9d985b1a5908199b1a5c08185b5bdd5b9d606a1b60448201526064016105a1565b600254600b54604051631711922960e31b81526001600160a01b03918216600482015260009291909116906393cbf21790829063b88c914890602401602060405180830381865afa158015610aad573d6000803e3d6000fd5b505050506040513d601f19601f82011682018060405250810190610ad1919061179f565b600b5460405160e084901b6001600160e01b03191681526001600160a01b03909116600482015260248101879052600160448201526001600160801b03919091169060640160206040518083038185885af1158015610b34573d6000803e3d6000fd5b50505050506040513d601f19601f82011682018060405250810190610b5991906117c8565b6040805160a0810182526001600160401b038381168083523460208085019182528486018b815233606087018181528b1515608089019081526000878152601086528a812099518a54991667ffffffffffffffff19998a16178a55955160018a015592516002890155516003909701805492511515600160a01b026001600160a81b03199093166001600160a01b039098169790971791909117909555848252600f815290859020805490931682179092559251928352929350917f0ee94a97c7c69ce2eb8cfb09bacc78d63a73b5e0fbed0d13a079190ff876ae3a910160405180910390a250505050565b610c4d61149c565b6001546001600160a01b031663662aa11d30610c716000546001600160a01b031690565b6040516001600160e01b031960e085901b1681526001600160a01b039283166004820152911660248201526044016020604051808303816000875af1158015610cbe573d6000803e3d6000fd5b505050506040513d601f19601f820116820180604052508101906108849190611700565b610cea61149c565b6001600160a01b0381166000818152600f60209081526040808320546001600160401b0316835260109091528082206001015490519192918381818185875af1925050503d8060008114610d5a576040519150601f19603f3d011682016040523d82523d6000602084013e610d5f565b606091505b5050905080610d805760405162461bcd60e51b81526004016105a190611776565b506001600160a01b03166000818152600f6020818152604080842080546001600160401b0316855260108352908420805467ffffffffffffffff1990811682556001820186905560028201869055600390910180546001600160a81b0319169055949093525280549091169055565b610df761149c565b6040516336b91f2b60e01b81526001600160a01b0382811660048301528316906336b91f2b90602401600060405180830381600087803b158015610e3a57600080fd5b505af1158015610e4e573d6000803e3d6000fd5b505050505050565b610e5e61149c565b6001600160a01b038116610e8857604051631e4fbdf760e01b8152600060048201526024016105a1565b610884816114c9565b306000818152600e602052604090208054600281901b620ffffc1663ffffffff1990911617905581610ec4576000610ec7565b60015b60ff16600184610ed8576000610edb565b60015b6001600160a01b038481166000908152600e6020526040808220805463ffffffff1980821663ffffffff92831660ff9890981690981b9890981716949094179490941790925587168152208054600281901b620ffffc16921691909117905581610f46576000610f49565b60015b60ff16600184610f5a576000610f5d565b60015b6001600160a01b0387166000908152600e60205260409020805463ffffffff19811663ffffffff91821660ff9490941690941b9490941793909316171790819055600160a01b9004600781901c60019081161490607f16841561105f576001600160a01b0383166000908152600e602052604090208054600160601b900463ffffffff1690600c610fed836117e5565b82546101009290920a63ffffffff8181021990931691831602179091556001600160a01b0388166000908152600e602052604090208054600160601b90049091169150600c61103b836117e5565b91906101000a81548163ffffffff021916908363ffffffff16021790555050611100565b6001600160a01b0383166000908152600e602052604090208054600160801b900463ffffffff16906010611092836117e5565b82546101009290920a63ffffffff8181021990931691831602179091556001600160a01b0388166000908152600e602052604090208054600160801b9004909116915060106110e0836117e5565b91906101000a81548163ffffffff021916908363ffffffff160217905550505b83156111fa576001600160a01b0383166000908152600e602052604090208054640100000000900463ffffffff1690600461113a836117e5565b82546101009290920a63ffffffff8181021990931691831602179091556001600160a01b0388166000908152600e602052604090208054640100000000900490911691506004611189836117e5565b91906101000a81548163ffffffff021916908363ffffffff1602179055505081156111c057806111b881611808565b9150506111c4565b5060015b6001600160a01b0386166000908152600e60205260409020805460ff60a01b1916600160a01b6080841760ff1602179055610e4e565b6001600160a01b0383166000908152600e602052604090208054600160401b900463ffffffff1690600861122d836117e5565b82546101009290920a63ffffffff8181021990931691831602179091556001600160a01b0388166000908152600e602052604090208054600160401b90049091169150600861127b836117e5565b91906101000a81548163ffffffff021916908363ffffffff16021790555050816112b157806112a981611808565b9150506112b5565b5060015b6001600160a01b0386166000908152600e60205260409020805460ff8316600160a01b0260ff60a01b19909116179055505050505050565b8015611322576001600160a01b0383166000908152600d602052604081208054600a929061131c908490611827565b90915550505b61133366038d7ea4c680008361183a565b6001600160a01b0384166000908152600d60205260408120805490919061135b908490611827565b90915550506001600160a01b0383166000908152600d60205260409020546101f411611497576001600160a01b0383166000908152600c602052604081205490036113ec57600a80546001810182556000919091527fc65a7bb8d6351c1cf70c95a316cc6a92839c986682d98bc35f958f4883f9d2a80180546001600160a01b0319166001600160a01b0385161790555b6001600160a01b0383166000908152600c60205260408120805460019290611415908490611827565b90915550506001600160a01b0383166000908152600d6020526040812080546101f4929061144490849061184e565b90915550506001600160a01b0383166000818152600c60209081526040918290205491519182527f91e51c29e7e87a74ad3b8ccba98538970f50a4309242735467f41e27c6b0fbac910160405180910390a25b505050565b6000546001600160a01b031633146108ff5760405163118cdaa760e01b81523360048201526024016105a1565b600080546001600160a01b038381166001600160a01b0319831681178455604051919092169283917f8be0079c531659141344cd1fd0a4f28419497f9722a3daafe3b4186f6b6457e09190a35050565b8260068101928215611547579160200282015b8281111561154757825182559160200191906001019061152c565b50611553929150611557565b5090565b5b808211156115535760008155600101611558565b60006020828403121561157e57600080fd5b5035919050565b6001600160401b038116811461088457600080fd5b600080604083850312156115ad57600080fd5b82356115b881611585565b946020939093013593505050565b80356001600160a01b03811681146115dd57600080fd5b919050565b600080604083850312156115f557600080fd5b6115fe836115c6565b915061160c602084016115c6565b90509250929050565b600060c0828403121561162757600080fd5b82601f83011261163657600080fd5b60405160c081018181106001600160401b038211171561166657634e487b7160e01b600052604160045260246000fd5b6040528060c084018581111561167b57600080fd5b845b8181101561169557803583526020928301920161167d565b509195945050505050565b6000602082840312156116b257600080fd5b6116bb826115c6565b9392505050565b6000806000606084860312156116d757600080fd5b8335925060208401359150604084013580151581146116f557600080fd5b809150509250925092565b60006020828403121561171257600080fd5b5051919050565b634e487b7160e01b600052601260045260246000fd5b60008261173e5761173e611719565b500690565b634e487b7160e01b600052601160045260246000fd5b808202811582820484141761177057611770611743565b92915050565b6020808252600f908201526e1d1c985b9cd9995c8819985a5b1959608a1b604082015260600190565b6000602082840312156117b157600080fd5b81516001600160801b03811681146116bb57600080fd5b6000602082840312156117da57600080fd5b81516116bb81611585565b600063ffffffff8083168181036117fe576117fe611743565b6001019392505050565b600060ff821660ff810361181e5761181e611743565b60010192915050565b8082018082111561177057611770611743565b60008261184957611849611719565b500490565b818103818111156117705761177061174356fea264697066735822122045b675fb75ed01eced0ed0ce1cd22b494866e904bac61325563295b1e70527bc64736f6c63430008140033","linkReferences":{}},"methodIdentifiers":{"amounts(uint256)":"45f0a44f","claimGas()":"a95d6b1c","deposit(bytes32,bytes32,bool)":"a7b10884","entropyProvider()":"5bf414ac","experience(address)":"d16ef1b5","flip(uint64,bytes32)":"31eac793","level(address)":"d41b6db6","levelOneOrHigher(uint256)":"00645777","manualReset(address)":"cedc2911","owner()":"8da5cb5b","renounceOwnership()":"715018a6","requests(uint256)":"81d12c58","sequenceNumbers(address)":"e1fab227","setEntropy(address,address)":"40ef7267","setFlipAmounts(uint256[6])":"5382fc26","setPointsOperator(address,address)":"e220831d","setThreshold(uint256)":"960bfe04","stats(address)":"8bcdcbf3","threshold()":"42cde4e8","transferOwnership(address)":"f2fde38b","withdraw()":"3ccfd60b"},"id":27}