{"abi":[{"type":"constructor","inputs":[{"name":"_blast","type":"address","internalType":"address"},{"name":"_entropy","type":"address","internalType":"address"},{"name":"_provider","type":"address","internalType":"address"},{"name":"_threshold","type":"uint256","internalType":"uint256"},{"name":"_amounts","type":"uint256[6]","internalType":"uint256[6]"}],"stateMutability":"nonpayable"},{"type":"receive","stateMutability":"payable"},{"type":"function","name":"amounts","inputs":[{"name":"","type":"uint256","internalType":"uint256"}],"outputs":[{"name":"","type":"uint256","internalType":"uint256"}],"stateMutability":"view"},{"type":"function","name":"claimGas","inputs":[],"outputs":[],"stateMutability":"nonpayable"},{"type":"function","name":"data","inputs":[{"name":"","type":"uint256","internalType":"uint256"}],"outputs":[{"name":"","type":"uint256","internalType":"uint256"}],"stateMutability":"view"},{"type":"function","name":"deposit","inputs":[{"name":"userRandom","type":"bytes32","internalType":"bytes32"},{"name":"userCommitment","type":"bytes32","internalType":"bytes32"},{"name":"choice","type":"bool","internalType":"bool"}],"outputs":[],"stateMutability":"payable"},{"type":"function","name":"experience","inputs":[{"name":"","type":"address","internalType":"address"}],"outputs":[{"name":"","type":"uint256","internalType":"uint256"}],"stateMutability":"view"},{"type":"function","name":"flip","inputs":[{"name":"sequenceNumber","type":"uint64","internalType":"uint64"},{"name":"providerRandom","type":"bytes32","internalType":"bytes32"}],"outputs":[],"stateMutability":"nonpayable"},{"type":"function","name":"level","inputs":[{"name":"","type":"address","internalType":"address"}],"outputs":[{"name":"","type":"uint256","internalType":"uint256"}],"stateMutability":"view"},{"type":"function","name":"levelOneOrHigher","inputs":[{"name":"","type":"uint256","internalType":"uint256"}],"outputs":[{"name":"","type":"address","internalType":"address"}],"stateMutability":"view"},{"type":"function","name":"manualReset","inputs":[{"name":"user","type":"address","internalType":"address"}],"outputs":[],"stateMutability":"nonpayable"},{"type":"function","name":"owner","inputs":[],"outputs":[{"name":"","type":"address","internalType":"address"}],"stateMutability":"view"},{"type":"function","name":"sequenceNumbers","inputs":[{"name":"","type":"address","internalType":"address"}],"outputs":[{"name":"","type":"uint64","internalType":"uint64"}],"stateMutability":"view"},{"type":"function","name":"setFlipAmounts","inputs":[{"name":"_amounts","type":"uint256[6]","internalType":"uint256[6]"}],"outputs":[],"stateMutability":"nonpayable"},{"type":"function","name":"setThreshold","inputs":[{"name":"_threshold","type":"uint256","internalType":"uint256"}],"outputs":[],"stateMutability":"nonpayable"},{"type":"function","name":"threshold","inputs":[],"outputs":[{"name":"","type":"uint256","internalType":"uint256"}],"stateMutability":"view"},{"type":"function","name":"withdraw","inputs":[],"outputs":[],"stateMutability":"payable"},{"type":"event","name":"Deposit","inputs":[{"name":"user","type":"address","indexed":true,"internalType":"address"},{"name":"sequenceNumber","type":"uint64","indexed":false,"internalType":"uint64"}],"anonymous":false},{"type":"event","name":"LevelUp","inputs":[{"name":"user","type":"address","indexed":true,"internalType":"address"},{"name":"level","type":"uint256","indexed":false,"internalType":"uint256"}],"anonymous":false},{"type":"event","name":"Result","inputs":[{"name":"user","type":"address","indexed":true,"internalType":"address"},{"name":"choice","type":"bool","indexed":false,"internalType":"bool"},{"name":"result","type":"bool","indexed":false,"internalType":"bool"},{"name":"amount","type":"uint256","indexed":false,"internalType":"uint256"}],"anonymous":false}],"bytecode":{"object":"0x60806040523480156200001157600080fd5b5060405162001506380380620015068339810160408190526200003491620001e3565b600080546001600160a01b0319166001600160a01b038716908117825560408051634e606c4760e01b815290519192634e606c479260048084019382900301818387803b1580156200008557600080fd5b505af11580156200009a573d6000803e3d6000fd5b5050600080546040805163388a0bbd60e11b815290516001600160a01b039092169450637114177a9350600480820193929182900301818387803b158015620000e257600080fd5b505af1158015620000f7573d6000803e3d6000fd5b5050600180546001600160a01b038089166001600160a01b031992831617909255600e805492881692821692909217909155600d805490911633179055505060028290556200014a600382600662000156565b505050505050620002ae565b826006810192821562000187579160200282015b82811115620001875782518255916020019190600101906200016a565b506200019592915062000199565b5090565b5b808211156200019557600081556001016200019a565b80516001600160a01b0381168114620001c857600080fd5b919050565b634e487b7160e01b600052604160045260246000fd5b6000806000806000610140808789031215620001fe57600080fd5b6200020987620001b0565b955060206200021a818901620001b0565b95506200022a60408901620001b0565b94506060880151935088609f8901126200024357600080fd5b60405160c081016001600160401b0381118282101715620002685762000268620001cd565b60405291880191808a8411156200027e57600080fd5b60808a015b848110156200029c578051825290830190830162000283565b50508093505050509295509295909350565b61124880620002be6000396000f3fe6080604052600436106100eb5760003560e01c8063960bfe041161008a578063d16ef1b511610059578063d16ef1b51461024a578063d41b6db614610277578063e1fab227146102a4578063f0ba8440146102f457600080fd5b8063960bfe04146101e2578063a7b1088414610202578063a95d6b1c14610215578063cedc29111461022a57600080fd5b806342cde4e8116100c657806342cde4e81461015e57806345f0a44f146101825780635382fc26146101a25780638da5cb5b146101c257600080fd5b8062645777146100f757806331eac793146101345780633ccfd60b1461015657600080fd5b366100f257005b600080fd5b34801561010357600080fd5b50610117610112366004610f2c565b610314565b6040516001600160a01b0390911681526020015b60405180910390f35b34801561014057600080fd5b5061015461014f366004610f5b565b61033e565b005b6101546106f8565b34801561016a57600080fd5b5061017460025481565b60405190815260200161012b565b34801561018e57600080fd5b5061017461019d366004610f2c565b610798565b3480156101ae57600080fd5b506101546101bd366004610f87565b6107af565b3480156101ce57600080fd5b50600d54610117906001600160a01b031681565b3480156101ee57600080fd5b506101546101fd366004610f2c565b6107ea565b610154610210366004611013565b610819565b34801561022157600080fd5b50610154610b47565b34801561023657600080fd5b50610154610245366004611051565b610be9565b34801561025657600080fd5b50610174610265366004611051565b60116020526000908152604090205481565b34801561028357600080fd5b50610174610292366004611051565b60106020526000908152604090205481565b3480156102b057600080fd5b506102db6102bf366004611051565b60126020526000908152604090205467ffffffffffffffff1681565b60405167ffffffffffffffff909116815260200161012b565b34801561030057600080fd5b5061017461030f366004610f2c565b610d1a565b600f818154811061032457600080fd5b6000918252602090912001546001600160a01b0316905081565b67ffffffffffffffff82166000908152601360205260409020600301546001600160a01b031633146103b05760405162461bcd60e51b81526020600482015260166024820152752ab730baba3437b934bd32b2103932b8bab2b9ba32b960511b60448201526064015b60405180910390fd5b600154600e543360009081526012602090815260408083205467ffffffffffffffff90811684526013909252808320600201549051639371df5160e01b81526001600160a01b039485166004820152918716602483015260448201526064810185905290929190911690639371df51906084016020604051808303816000875af1158015610442573d6000803e3d6000fd5b505050506040513d601f19601f820116820180604052508101906104669190611081565b905060006104756002836110b0565b67ffffffffffffffff851660009081526013602090815260409182902060038101546001909101548351600160a01b830460ff168015158252951593810184905293840181905291945090916001600160a01b039091169081907f2afadff3ac4aa3323ea0a8a6161f11227b249516d9889715a4eae4a1993137ea9060600160405180910390a26001600160a01b0381166000908152601260209081526040808320805467ffffffffffffffff1990811690915567ffffffffffffffff8b168452601390925282208054909116815560018101829055600281019190915560030180546001600160a81b03191690558215610584576009805490600061057a836110da565b919050555061059a565b600a8054906000610594836110da565b91905055505b83156105ba57600b80549060006105b0836110da565b91905055506105d0565b600c80549060006105ca836110da565b91905055505b6105e1818386151586151514610d2a565b831515831515036106ef57600154600e54604051631711922960e31b81526001600160a01b03918216600482015260009284831692169063b88c914890602401602060405180830381865afa15801561063e573d6000803e3d6000fd5b505050506040513d601f19601f8201168201806040525081019061066291906110f3565b61066d90600261111c565b6001600160801b0316610681856002611147565b61068b9190611164565b604051600081818185875af1925050503d80600081146106c7576040519150601f19603f3d011682016040523d82523d6000602084013e6106cc565b606091505b50509050806106ed5760405162461bcd60e51b81526004016103a790611177565b505b50505050505050565b600d546001600160a01b031633146107225760405162461bcd60e51b81526004016103a7906111a0565b600d546040516000916001600160a01b03169047908381818185875af1925050503d806000811461076f576040519150601f19603f3d011682016040523d82523d6000602084013e610774565b606091505b50509050806107955760405162461bcd60e51b81526004016103a790611177565b50565b600381600681106107a857600080fd5b0154905081565b600d546001600160a01b031633146107d95760405162461bcd60e51b81526004016103a7906111a0565b6107e66003826006610ed9565b5050565b600d546001600160a01b031633146108145760405162461bcd60e51b81526004016103a7906111a0565b600255565b3360009081526012602052604090205467ffffffffffffffff16156108805760405162461bcd60e51b815260206004820152601d60248201527f596f75206d75737420666c69702061667465722061206465706f73697400000060448201526064016103a7565b6002544710156108d25760405162461bcd60e51b815260206004820152601c60248201527f466c697070696e672069732063757272656e746c79207061757365640000000060448201526064016103a7565b6003543414806108e3575060045434145b806108ef575060055434145b806108fb575060065434145b80610907575060075434145b80610913575060085434145b6109555760405162461bcd60e51b8152602060048201526013602482015272125b9d985b1a5908199b1a5c08185b5bdd5b9d606a1b60448201526064016103a7565b600154600e54604051631711922960e31b81526001600160a01b03918216600482015260009291909116906393cbf21790829063b88c914890602401602060405180830381865afa1580156109ae573d6000803e3d6000fd5b505050506040513d601f19601f820116820180604052508101906109d291906110f3565b600e5460405160e084901b6001600160e01b03191681526001600160a01b03909116600482015260248101879052600160448201526001600160801b03919091169060640160206040518083038185885af1158015610a35573d6000803e3d6000fd5b50505050506040513d601f19601f82011682018060405250810190610a5a91906111ce565b6040805160a08101825267ffffffffffffffff8381168083523460208085019182528486018b815233606087018181528b1515608089019081526000878152601386528a812099518a54991667ffffffffffffffff19998a16178a55955160018a015592516002890155516003909701805492511515600160a01b026001600160a81b03199093166001600160a01b0390981697909717919091179095558482526012815290859020805490931682179092559251928352929350917f0ee94a97c7c69ce2eb8cfb09bacc78d63a73b5e0fbed0d13a079190ff876ae3a910160405180910390a250505050565b600d546001600160a01b03163314610b715760405162461bcd60e51b81526004016103a7906111a0565b600054600d5460405163662aa11d60e01b81523060048201526001600160a01b03918216602482015291169063662aa11d906044016020604051808303816000875af1158015610bc5573d6000803e3d6000fd5b505050506040513d601f19601f820116820180604052508101906107959190611081565b600d546001600160a01b03163314610c135760405162461bcd60e51b81526004016103a7906111a0565b6001600160a01b03811660008181526012602090815260408083205467ffffffffffffffff16835260139091528082206001015490519192918381818185875af1925050503d8060008114610c84576040519150601f19603f3d011682016040523d82523d6000602084013e610c89565b606091505b5050905080610caa5760405162461bcd60e51b81526004016103a790611177565b506001600160a01b03166000818152601260208181526040808420805467ffffffffffffffff16855260138352908420805467ffffffffffffffff1990811682556001820186905560028201869055600390910180546001600160a81b0319169055949093525280549091169055565b600981600481106107a857600080fd5b8015610d5f576001600160a01b0383166000908152601160205260408120805460199290610d599084906111eb565b90915550505b610d7066038d7ea4c68000836111fe565b6001600160a01b03841660009081526011602052604081208054909190610d989084906111eb565b90915550506001600160a01b0383166000908152601160205260409020546101f411610ed4576001600160a01b0383166000908152601060205260408120549003610e2957600f80546001810182556000919091527f8d1108e10bcb7c27dddfc02ed9d693a074039d026cf4ea4240b40f7d581ac8020180546001600160a01b0319166001600160a01b0385161790555b6001600160a01b0383166000908152601060205260408120805460019290610e529084906111eb565b90915550506001600160a01b038316600090815260116020526040812080546101f49290610e81908490611164565b90915550506001600160a01b0383166000818152601060209081526040918290205491519182527f91e51c29e7e87a74ad3b8ccba98538970f50a4309242735467f41e27c6b0fbac910160405180910390a25b505050565b8260068101928215610f07579160200282015b82811115610f07578251825591602001919060010190610eec565b50610f13929150610f17565b5090565b5b80821115610f135760008155600101610f18565b600060208284031215610f3e57600080fd5b5035919050565b67ffffffffffffffff8116811461079557600080fd5b60008060408385031215610f6e57600080fd5b8235610f7981610f45565b946020939093013593505050565b600060c08284031215610f9957600080fd5b82601f830112610fa857600080fd5b60405160c0810181811067ffffffffffffffff82111715610fd957634e487b7160e01b600052604160045260246000fd5b6040528060c0840185811115610fee57600080fd5b845b81811015611008578035835260209283019201610ff0565b509195945050505050565b60008060006060848603121561102857600080fd5b83359250602084013591506040840135801515811461104657600080fd5b809150509250925092565b60006020828403121561106357600080fd5b81356001600160a01b038116811461107a57600080fd5b9392505050565b60006020828403121561109357600080fd5b5051919050565b634e487b7160e01b600052601260045260246000fd5b6000826110bf576110bf61109a565b500690565b634e487b7160e01b600052601160045260246000fd5b6000600182016110ec576110ec6110c4565b5060010190565b60006020828403121561110557600080fd5b81516001600160801b038116811461107a57600080fd5b6001600160801b0381811683821602808216919082811461113f5761113f6110c4565b505092915050565b808202811582820484141761115e5761115e6110c4565b92915050565b8181038181111561115e5761115e6110c4565b6020808252600f908201526e151c985b9cd9995c8819985a5b1959608a1b604082015260600190565b60208082526014908201527320b2323932b9b99034b9903737ba1037bbb732b960611b604082015260600190565b6000602082840312156111e057600080fd5b815161107a81610f45565b8082018082111561115e5761115e6110c4565b60008261120d5761120d61109a565b50049056fea2646970667358221220e516ea9623705724a17d4f640ec23b6a98f320ae23a25e568a3731b0a4b331ae64736f6c63430008140033","linkReferences":{}},"methodIdentifiers":{"amounts(uint256)":"45f0a44f","claimGas()":"a95d6b1c","data(uint256)":"f0ba8440","deposit(bytes32,bytes32,bool)":"a7b10884","experience(address)":"d16ef1b5","flip(uint64,bytes32)":"31eac793","level(address)":"d41b6db6","levelOneOrHigher(uint256)":"00645777","manualReset(address)":"cedc2911","owner()":"8da5cb5b","sequenceNumbers(address)":"e1fab227","setFlipAmounts(uint256[6])":"5382fc26","setThreshold(uint256)":"960bfe04","threshold()":"42cde4e8","withdraw()":"3ccfd60b"},"id":25}