{"abi":[{"type":"constructor","inputs":[{"name":"_blast","type":"address","internalType":"address"},{"name":"_entropy","type":"address","internalType":"address"},{"name":"_provider","type":"address","internalType":"address"},{"name":"_threshold","type":"uint256","internalType":"uint256"},{"name":"_amounts","type":"uint256[6]","internalType":"uint256[6]"}],"stateMutability":"nonpayable"},{"type":"receive","stateMutability":"payable"},{"type":"function","name":"amounts","inputs":[{"name":"","type":"uint256","internalType":"uint256"}],"outputs":[{"name":"","type":"uint256","internalType":"uint256"}],"stateMutability":"view"},{"type":"function","name":"claimGas","inputs":[],"outputs":[],"stateMutability":"nonpayable"},{"type":"function","name":"data","inputs":[{"name":"","type":"uint256","internalType":"uint256"}],"outputs":[{"name":"","type":"uint256","internalType":"uint256"}],"stateMutability":"view"},{"type":"function","name":"deposit","inputs":[{"name":"userRandom","type":"bytes32","internalType":"bytes32"},{"name":"userCommitment","type":"bytes32","internalType":"bytes32"},{"name":"choice","type":"bool","internalType":"bool"}],"outputs":[],"stateMutability":"payable"},{"type":"function","name":"entropyProvider","inputs":[],"outputs":[{"name":"","type":"address","internalType":"address"}],"stateMutability":"view"},{"type":"function","name":"experience","inputs":[{"name":"","type":"address","internalType":"address"}],"outputs":[{"name":"","type":"uint256","internalType":"uint256"}],"stateMutability":"view"},{"type":"function","name":"flip","inputs":[{"name":"sequenceNumber","type":"uint64","internalType":"uint64"},{"name":"providerRandom","type":"bytes32","internalType":"bytes32"}],"outputs":[],"stateMutability":"nonpayable"},{"type":"function","name":"level","inputs":[{"name":"","type":"address","internalType":"address"}],"outputs":[{"name":"","type":"uint256","internalType":"uint256"}],"stateMutability":"view"},{"type":"function","name":"levelOneOrHigher","inputs":[{"name":"","type":"uint256","internalType":"uint256"}],"outputs":[{"name":"","type":"address","internalType":"address"}],"stateMutability":"view"},{"type":"function","name":"manualReset","inputs":[{"name":"user","type":"address","internalType":"address"}],"outputs":[],"stateMutability":"nonpayable"},{"type":"function","name":"owner","inputs":[],"outputs":[{"name":"","type":"address","internalType":"address"}],"stateMutability":"view"},{"type":"function","name":"requests","inputs":[{"name":"","type":"uint256","internalType":"uint256"}],"outputs":[{"name":"sequenceNumber","type":"uint64","internalType":"uint64"},{"name":"flipAmount","type":"uint256","internalType":"uint256"},{"name":"randomNumber","type":"bytes32","internalType":"bytes32"},{"name":"requester","type":"address","internalType":"address"},{"name":"choice","type":"bool","internalType":"bool"}],"stateMutability":"view"},{"type":"function","name":"sequenceNumbers","inputs":[{"name":"","type":"address","internalType":"address"}],"outputs":[{"name":"","type":"uint64","internalType":"uint64"}],"stateMutability":"view"},{"type":"function","name":"setFlipAmounts","inputs":[{"name":"_amounts","type":"uint256[6]","internalType":"uint256[6]"}],"outputs":[],"stateMutability":"nonpayable"},{"type":"function","name":"setThreshold","inputs":[{"name":"_threshold","type":"uint256","internalType":"uint256"}],"outputs":[],"stateMutability":"nonpayable"},{"type":"function","name":"threshold","inputs":[],"outputs":[{"name":"","type":"uint256","internalType":"uint256"}],"stateMutability":"view"},{"type":"function","name":"withdraw","inputs":[],"outputs":[],"stateMutability":"payable"},{"type":"event","name":"Deposit","inputs":[{"name":"user","type":"address","indexed":true,"internalType":"address"},{"name":"sequenceNumber","type":"uint64","indexed":false,"internalType":"uint64"}],"anonymous":false},{"type":"event","name":"LevelUp","inputs":[{"name":"user","type":"address","indexed":true,"internalType":"address"},{"name":"level","type":"uint256","indexed":false,"internalType":"uint256"}],"anonymous":false},{"type":"event","name":"Result","inputs":[{"name":"user","type":"address","indexed":true,"internalType":"address"},{"name":"choice","type":"bool","indexed":false,"internalType":"bool"},{"name":"result","type":"bool","indexed":false,"internalType":"bool"},{"name":"amount","type":"uint256","indexed":false,"internalType":"uint256"}],"anonymous":false}],"bytecode":{"object":"0x60806040523480156200001157600080fd5b5060405162001525380380620015258339810160408190526200003491620001e2565b600080546001600160a01b0319166001600160a01b038716908117825560408051634e606c4760e01b815290519192634e606c479260048084019382900301818387803b1580156200008557600080fd5b505af11580156200009a573d6000803e3d6000fd5b5050600080546040805163388a0bbd60e11b815290516001600160a01b039092169450637114177a9350600480820193929182900301818387803b158015620000e257600080fd5b505af1158015620000f7573d6000803e3d6000fd5b5050600180546001600160a01b038089166001600160a01b031992831617909255600f805492881692821692909217909155600e8054909116331790555050600c829055620001496006828162000155565b505050505050620002ad565b826006810192821562000186579160200282015b828111156200018657825182559160200191906001019062000169565b506200019492915062000198565b5090565b5b8082111562000194576000815560010162000199565b80516001600160a01b0381168114620001c757600080fd5b919050565b634e487b7160e01b600052604160045260246000fd5b6000806000806000610140808789031215620001fd57600080fd5b6200020887620001af565b9550602062000219818901620001af565b95506200022960408901620001af565b94506060880151935088609f8901126200024257600080fd5b60405160c081016001600160401b0381118282101715620002675762000267620001cc565b60405291880191808a8411156200027d57600080fd5b60808a015b848110156200029b578051825290830190830162000282565b50508093505050509295509295909350565b61126880620002bd6000396000f3fe6080604052600436106101015760003560e01c80638da5cb5b11610095578063cedc291111610064578063cedc2911146102fe578063d16ef1b51461031e578063d41b6db61461034b578063e1fab22714610378578063f0ba8440146103c657600080fd5b80638da5cb5b14610296578063960bfe04146102b6578063a7b10884146102d6578063a95d6b1c146102e957600080fd5b806345f0a44f116100d157806345f0a44f146101985780635382fc26146101b85780635bf414ac146101d857806381d12c58146101f857600080fd5b80626457771461010d57806331eac7931461014a5780633ccfd60b1461016c57806342cde4e81461017457600080fd5b3661010857005b600080fd5b34801561011957600080fd5b5061012d610128366004610f78565b6103e6565b6040516001600160a01b0390911681526020015b60405180910390f35b34801561015657600080fd5b5061016a610165366004610fa6565b610410565b005b61016a61073e565b34801561018057600080fd5b5061018a600c5481565b604051908152602001610141565b3480156101a457600080fd5b5061018a6101b3366004610f78565b6107de565b3480156101c457600080fd5b5061016a6101d3366004610fd2565b6107f5565b3480156101e457600080fd5b50600f5461012d906001600160a01b031681565b34801561020457600080fd5b50610259610213366004610f78565b60136020526000908152604090208054600182015460028301546003909301546001600160401b039092169290916001600160a01b03811690600160a01b900460ff1685565b604080516001600160401b0390961686526020860194909452928401919091526001600160a01b031660608301521515608082015260a001610141565b3480156102a257600080fd5b50600e5461012d906001600160a01b031681565b3480156102c257600080fd5b5061016a6102d1366004610f78565b61082f565b61016a6102e436600461105d565b61085e565b3480156102f557600080fd5b5061016a610b95565b34801561030a57600080fd5b5061016a61031936600461109b565b610c37565b34801561032a57600080fd5b5061018a61033936600461109b565b60116020526000908152604090205481565b34801561035757600080fd5b5061018a61036636600461109b565b60106020526000908152604090205481565b34801561038457600080fd5b506103ae61039336600461109b565b6012602052600090815260409020546001600160401b031681565b6040516001600160401b039091168152602001610141565b3480156103d257600080fd5b5061018a6103e1366004610f78565b610d66565b600d81815481106103f657600080fd5b6000918252602090912001546001600160a01b0316905081565b6001600160401b0382166000908152601360205260409020600301546001600160a01b031633146104815760405162461bcd60e51b81526020600482015260166024820152753ab730baba3437b934bd32b2103932b8bab2b9ba32b960511b60448201526064015b60405180910390fd5b600154600f54336000908152601260209081526040808320546001600160401b0390811684526013909252808320600201549051639371df5160e01b81526001600160a01b039485166004820152918716602483015260448201526064810185905290929190911690639371df51906084016020604051808303816000875af1158015610512573d6000803e3d6000fd5b505050506040513d601f19601f8201168201806040525081019061053691906110cb565b905060006105456002836110fa565b6001600160401b03851660009081526013602090815260409182902060038101546001909101548351600160a01b830460ff168015158252951593810184905293840181905291945090916001600160a01b039091169081907f2afadff3ac4aa3323ea0a8a6161f11227b249516d9889715a4eae4a1993137ea9060600160405180910390a26001600160a01b0381166000908152601260209081526040808320805467ffffffffffffffff199081169091556001600160401b038b168452601390925282208054909116815560018101829055600281019190915560030180546001600160a81b03191690558215610652576002805490600061064883611124565b9190505550610668565b6003805490600061066283611124565b91905055505b8315610688576004805490600061067e83611124565b919050555061069e565b6005805490600061069883611124565b91905055505b6106af818386151586151514610d76565b831515831515036107355760006001600160a01b0382166106d184600261113d565b604051600081818185875af1925050503d806000811461070d576040519150601f19603f3d011682016040523d82523d6000602084013e610712565b606091505b50509050806107335760405162461bcd60e51b81526004016104789061115a565b505b50505050505050565b600e546001600160a01b031633146107685760405162461bcd60e51b815260040161047890611183565b600e546040516000916001600160a01b03169047908381818185875af1925050503d80600081146107b5576040519150601f19603f3d011682016040523d82523d6000602084013e6107ba565b606091505b50509050806107db5760405162461bcd60e51b81526004016104789061115a565b50565b600681600681106107ee57600080fd5b0154905081565b600e546001600160a01b0316331461081f5760405162461bcd60e51b815260040161047890611183565b61082b60068281610f25565b5050565b600e546001600160a01b031633146108595760405162461bcd60e51b815260040161047890611183565b600c55565b336000908152601260205260409020546001600160401b0316156108cf5760405162461bcd60e51b815260206004820152602260248201527f6163636f756e7473206d75737420666c69702061667465722061206465706f736044820152611a5d60f21b6064820152608401610478565b600c544710156109215760405162461bcd60e51b815260206004820152601c60248201527f666c697070696e672069732063757272656e746c7920706175736564000000006044820152606401610478565b600654341480610932575060075434145b8061093e575060085434145b8061094a575060095434145b806109565750600a5434145b806109625750600b5434145b6109a45760405162461bcd60e51b81526020600482015260136024820152721a5b9d985b1a5908199b1a5c08185b5bdd5b9d606a1b6044820152606401610478565b600154600f54604051631711922960e31b81526001600160a01b03918216600482015260009291909116906393cbf21790829063b88c914890602401602060405180830381865afa1580156109fd573d6000803e3d6000fd5b505050506040513d601f19601f82011682018060405250810190610a2191906111b2565b600f5460405160e084901b6001600160e01b03191681526001600160a01b03909116600482015260248101879052600160448201526001600160801b03919091169060640160206040518083038185885af1158015610a84573d6000803e3d6000fd5b50505050506040513d601f19601f82011682018060405250810190610aa991906111db565b6040805160a0810182526001600160401b038381168083523460208085019182528486018b815233606087018181528b1515608089019081526000878152601386528a812099518a54991667ffffffffffffffff19998a16178a55955160018a015592516002890155516003909701805492511515600160a01b026001600160a81b03199093166001600160a01b0390981697909717919091179095558482526012815290859020805490931682179092559251928352929350917f0ee94a97c7c69ce2eb8cfb09bacc78d63a73b5e0fbed0d13a079190ff876ae3a910160405180910390a250505050565b600e546001600160a01b03163314610bbf5760405162461bcd60e51b815260040161047890611183565b600054600e5460405163662aa11d60e01b81523060048201526001600160a01b03918216602482015291169063662aa11d906044016020604051808303816000875af1158015610c13573d6000803e3d6000fd5b505050506040513d601f19601f820116820180604052508101906107db91906110cb565b600e546001600160a01b03163314610c615760405162461bcd60e51b815260040161047890611183565b6001600160a01b0381166000818152601260209081526040808320546001600160401b0316835260139091528082206001015490519192918381818185875af1925050503d8060008114610cd1576040519150601f19603f3d011682016040523d82523d6000602084013e610cd6565b606091505b5050905080610cf75760405162461bcd60e51b81526004016104789061115a565b506001600160a01b0316600081815260126020818152604080842080546001600160401b0316855260138352908420805467ffffffffffffffff1990811682556001820186905560028201869055600390910180546001600160a81b0319169055949093525280549091169055565b600281600481106107ee57600080fd5b8015610dab576001600160a01b0383166000908152601160205260408120805460199290610da59084906111f8565b90915550505b610dbc66038d7ea4c680008361120b565b6001600160a01b03841660009081526011602052604081208054909190610de49084906111f8565b90915550506001600160a01b0383166000908152601160205260409020546101f411610f20576001600160a01b0383166000908152601060205260408120549003610e7557600d80546001810182556000919091527fd7b6990105719101dabeb77144f2a3385c8033acd3af97e9423a695e81ad1eb50180546001600160a01b0319166001600160a01b0385161790555b6001600160a01b0383166000908152601060205260408120805460019290610e9e9084906111f8565b90915550506001600160a01b038316600090815260116020526040812080546101f49290610ecd90849061121f565b90915550506001600160a01b0383166000818152601060209081526040918290205491519182527f91e51c29e7e87a74ad3b8ccba98538970f50a4309242735467f41e27c6b0fbac910160405180910390a25b505050565b8260068101928215610f53579160200282015b82811115610f53578251825591602001919060010190610f38565b50610f5f929150610f63565b5090565b5b80821115610f5f5760008155600101610f64565b600060208284031215610f8a57600080fd5b5035919050565b6001600160401b03811681146107db57600080fd5b60008060408385031215610fb957600080fd5b8235610fc481610f91565b946020939093013593505050565b600060c08284031215610fe457600080fd5b82601f830112610ff357600080fd5b60405160c081018181106001600160401b038211171561102357634e487b7160e01b600052604160045260246000fd5b6040528060c084018581111561103857600080fd5b845b8181101561105257803583526020928301920161103a565b509195945050505050565b60008060006060848603121561107257600080fd5b83359250602084013591506040840135801515811461109057600080fd5b809150509250925092565b6000602082840312156110ad57600080fd5b81356001600160a01b03811681146110c457600080fd5b9392505050565b6000602082840312156110dd57600080fd5b5051919050565b634e487b7160e01b600052601260045260246000fd5b600082611109576111096110e4565b500690565b634e487b7160e01b600052601160045260246000fd5b6000600182016111365761113661110e565b5060010190565b80820281158282048414176111545761115461110e565b92915050565b6020808252600f908201526e1d1c985b9cd9995c8819985a5b1959608a1b604082015260600190565b60208082526015908201527418d85b1b195c881b9bdd08185d5d1a1bdc9a5e9959605a1b604082015260600190565b6000602082840312156111c457600080fd5b81516001600160801b03811681146110c457600080fd5b6000602082840312156111ed57600080fd5b81516110c481610f91565b808201808211156111545761115461110e565b60008261121a5761121a6110e4565b500490565b818103818111156111545761115461110e56fea2646970667358221220da25b1ea64addbfe77ea5af032a42aae83fb56400bda8282b58eccc8ea04e4fa64736f6c63430008140033","linkReferences":{}},"methodIdentifiers":{"amounts(uint256)":"45f0a44f","claimGas()":"a95d6b1c","data(uint256)":"f0ba8440","deposit(bytes32,bytes32,bool)":"a7b10884","entropyProvider()":"5bf414ac","experience(address)":"d16ef1b5","flip(uint64,bytes32)":"31eac793","level(address)":"d41b6db6","levelOneOrHigher(uint256)":"00645777","manualReset(address)":"cedc2911","owner()":"8da5cb5b","requests(uint256)":"81d12c58","sequenceNumbers(address)":"e1fab227","setFlipAmounts(uint256[6])":"5382fc26","setThreshold(uint256)":"960bfe04","threshold()":"42cde4e8","withdraw()":"3ccfd60b"},"id":25}