{"abi":[{"type":"constructor","inputs":[{"name":"_blast","type":"address","internalType":"address"},{"name":"_entropy","type":"address","internalType":"address"},{"name":"_provider","type":"address","internalType":"address"},{"name":"_threshold","type":"uint256","internalType":"uint256"},{"name":"_amounts","type":"uint256[6]","internalType":"uint256[6]"}],"stateMutability":"nonpayable"},{"type":"receive","stateMutability":"payable"},{"type":"function","name":"amounts","inputs":[{"name":"","type":"uint256","internalType":"uint256"}],"outputs":[{"name":"","type":"uint256","internalType":"uint256"}],"stateMutability":"view"},{"type":"function","name":"claimGas","inputs":[],"outputs":[],"stateMutability":"nonpayable"},{"type":"function","name":"deposit","inputs":[{"name":"userRandom","type":"bytes32","internalType":"bytes32"},{"name":"userCommitment","type":"bytes32","internalType":"bytes32"},{"name":"choice","type":"bool","internalType":"bool"}],"outputs":[],"stateMutability":"payable"},{"type":"function","name":"entropyProvider","inputs":[],"outputs":[{"name":"","type":"address","internalType":"address"}],"stateMutability":"view"},{"type":"function","name":"experience","inputs":[{"name":"","type":"address","internalType":"address"}],"outputs":[{"name":"","type":"uint256","internalType":"uint256"}],"stateMutability":"view"},{"type":"function","name":"flip","inputs":[{"name":"sequenceNumber","type":"uint64","internalType":"uint64"},{"name":"providerRandom","type":"bytes32","internalType":"bytes32"}],"outputs":[],"stateMutability":"nonpayable"},{"type":"function","name":"level","inputs":[{"name":"","type":"address","internalType":"address"}],"outputs":[{"name":"","type":"uint256","internalType":"uint256"}],"stateMutability":"view"},{"type":"function","name":"levelOneOrHigher","inputs":[{"name":"","type":"uint256","internalType":"uint256"}],"outputs":[{"name":"","type":"address","internalType":"address"}],"stateMutability":"view"},{"type":"function","name":"manualReset","inputs":[{"name":"user","type":"address","internalType":"address"}],"outputs":[],"stateMutability":"nonpayable"},{"type":"function","name":"owner","inputs":[],"outputs":[{"name":"","type":"address","internalType":"address"}],"stateMutability":"view"},{"type":"function","name":"renounceOwnership","inputs":[],"outputs":[],"stateMutability":"nonpayable"},{"type":"function","name":"requests","inputs":[{"name":"","type":"uint256","internalType":"uint256"}],"outputs":[{"name":"sequenceNumber","type":"uint64","internalType":"uint64"},{"name":"flipAmount","type":"uint256","internalType":"uint256"},{"name":"randomNumber","type":"bytes32","internalType":"bytes32"},{"name":"requester","type":"address","internalType":"address"},{"name":"choice","type":"bool","internalType":"bool"}],"stateMutability":"view"},{"type":"function","name":"sequenceNumbers","inputs":[{"name":"","type":"address","internalType":"address"}],"outputs":[{"name":"","type":"uint64","internalType":"uint64"}],"stateMutability":"view"},{"type":"function","name":"setFlipAmounts","inputs":[{"name":"_amounts","type":"uint256[6]","internalType":"uint256[6]"}],"outputs":[],"stateMutability":"nonpayable"},{"type":"function","name":"setThreshold","inputs":[{"name":"_threshold","type":"uint256","internalType":"uint256"}],"outputs":[],"stateMutability":"nonpayable"},{"type":"function","name":"stats","inputs":[{"name":"","type":"address","internalType":"address"}],"outputs":[{"name":"lastTen","type":"uint32","internalType":"uint32"},{"name":"numWins","type":"uint32","internalType":"uint32"},{"name":"numLosses","type":"uint32","internalType":"uint32"},{"name":"numHeads","type":"uint32","internalType":"uint32"},{"name":"numTails","type":"uint32","internalType":"uint32"},{"name":"streak","type":"uint8","internalType":"uint8"}],"stateMutability":"view"},{"type":"function","name":"threshold","inputs":[],"outputs":[{"name":"","type":"uint256","internalType":"uint256"}],"stateMutability":"view"},{"type":"function","name":"transferOwnership","inputs":[{"name":"newOwner","type":"address","internalType":"address"}],"outputs":[],"stateMutability":"nonpayable"},{"type":"function","name":"withdraw","inputs":[],"outputs":[],"stateMutability":"payable"},{"type":"event","name":"Deposit","inputs":[{"name":"user","type":"address","indexed":true,"internalType":"address"},{"name":"sequenceNumber","type":"uint64","indexed":false,"internalType":"uint64"}],"anonymous":false},{"type":"event","name":"LevelUp","inputs":[{"name":"user","type":"address","indexed":true,"internalType":"address"},{"name":"level","type":"uint256","indexed":false,"internalType":"uint256"}],"anonymous":false},{"type":"event","name":"OwnershipTransferred","inputs":[{"name":"previousOwner","type":"address","indexed":true,"internalType":"address"},{"name":"newOwner","type":"address","indexed":true,"internalType":"address"}],"anonymous":false},{"type":"event","name":"Result","inputs":[{"name":"user","type":"address","indexed":true,"internalType":"address"},{"name":"choice","type":"bool","indexed":false,"internalType":"bool"},{"name":"result","type":"bool","indexed":false,"internalType":"bool"},{"name":"amount","type":"uint256","indexed":false,"internalType":"uint256"}],"anonymous":false},{"type":"error","name":"OwnableInvalidOwner","inputs":[{"name":"owner","type":"address","internalType":"address"}]},{"type":"error","name":"OwnableUnauthorizedAccount","inputs":[{"name":"account","type":"address","internalType":"address"}]}],"bytecode":{"object":"0x60806040523480156200001157600080fd5b5060405162001aaa38038062001aaa83398101604081905262000034916200026d565b33806200005b57604051631e4fbdf760e01b81526000600482015260240160405180910390fd5b620000668162000190565b50600180546001600160a01b0319166001600160a01b03871690811790915560408051634e606c4760e01b81529051634e606c479160048082019260009290919082900301818387803b158015620000bd57600080fd5b505af1158015620000d2573d6000803e3d6000fd5b50505050600160009054906101000a90046001600160a01b03166001600160a01b0316637114177a6040518163ffffffff1660e01b8152600401600060405180830381600087803b1580156200012757600080fd5b505af11580156200013c573d6000803e3d6000fd5b5050600280546001600160a01b038089166001600160a01b031992831617909255600b80549288169290911691909117905550506009829055620001846003826006620001e0565b50505050505062000338565b600080546001600160a01b038381166001600160a01b0319831681178455604051919092169283917f8be0079c531659141344cd1fd0a4f28419497f9722a3daafe3b4186f6b6457e09190a35050565b826006810192821562000211579160200282015b8281111562000211578251825591602001919060010190620001f4565b506200021f92915062000223565b5090565b5b808211156200021f576000815560010162000224565b80516001600160a01b03811681146200025257600080fd5b919050565b634e487b7160e01b600052604160045260246000fd5b60008060008060006101408087890312156200028857600080fd5b62000293876200023a565b95506020620002a48189016200023a565b9550620002b4604089016200023a565b94506060880151935088609f890112620002cd57600080fd5b60405160c081016001600160401b0381118282101715620002f257620002f262000257565b60405291880191808a8411156200030857600080fd5b60808a015b848110156200032657805182529083019083016200030d565b50508093505050509295509295909350565b61176280620003486000396000f3fe6080604052600436106101175760003560e01c80638bcdcbf3116100a0578063cedc291111610064578063cedc2911146103d1578063d16ef1b5146103f1578063d41b6db61461041e578063e1fab2271461044b578063f2fde38b1461049957600080fd5b80638bcdcbf3146102c15780638da5cb5b1461036b578063960bfe0414610389578063a7b10884146103a9578063a95d6b1c146103bc57600080fd5b806345f0a44f116100e757806345f0a44f146101ae5780635382fc26146101ce5780635bf414ac146101ee578063715018a61461020e57806381d12c581461022357600080fd5b80626457771461012357806331eac793146101605780633ccfd60b1461018257806342cde4e81461018a57600080fd5b3661011e57005b600080fd5b34801561012f57600080fd5b5061014361013e366004611478565b6104b9565b6040516001600160a01b0390911681526020015b60405180910390f35b34801561016c57600080fd5b5061018061017b3660046114a6565b6104e3565b005b6101806107b3565b34801561019657600080fd5b506101a060095481565b604051908152602001610157565b3480156101ba57600080fd5b506101a06101c9366004611478565b610831565b3480156101da57600080fd5b506101806101e93660046114d2565b610848565b3480156101fa57600080fd5b50600b54610143906001600160a01b031681565b34801561021a57600080fd5b50610180610861565b34801561022f57600080fd5b5061028461023e366004611478565b60106020526000908152604090208054600182015460028301546003909301546001600160401b039092169290916001600160a01b03811690600160a01b900460ff1685565b604080516001600160401b0390961686526020860194909452928401919091526001600160a01b031660608301521515608082015260a001610157565b3480156102cd57600080fd5b506103296102dc36600461155d565b600e6020526000908152604090205463ffffffff808216916401000000008104821691600160401b8204811691600160601b8104821691600160801b82041690600160a01b900460ff1686565b6040805163ffffffff97881681529587166020870152938616938501939093529084166060840152909216608082015260ff90911660a082015260c001610157565b34801561037757600080fd5b506000546001600160a01b0316610143565b34801561039557600080fd5b506101806103a4366004611478565b610875565b6101806103b736600461158d565b610882565b3480156103c857600080fd5b50610180610bb9565b3480156103dd57600080fd5b506101806103ec36600461155d565b610c56565b3480156103fd57600080fd5b506101a061040c36600461155d565b600d6020526000908152604090205481565b34801561042a57600080fd5b506101a061043936600461155d565b600c6020526000908152604090205481565b34801561045757600080fd5b5061048161046636600461155d565b600f602052600090815260409020546001600160401b031681565b6040516001600160401b039091168152602001610157565b3480156104a557600080fd5b506101806104b436600461155d565b610d63565b600a81815481106104c957600080fd5b6000918252602090912001546001600160a01b0316905081565b6001600160401b0382166000908152601060205260409020600301546001600160a01b031633146105545760405162461bcd60e51b81526020600482015260166024820152753ab730baba3437b934bd32b2103932b8bab2b9ba32b960511b60448201526064015b60405180910390fd5b60028054600b54336000908152600f60209081526040808320546001600160401b0390811684526010909252808320909501549451639371df5160e01b81526001600160a01b039384166004820152908716602482015260448101949094526064840185905292911690639371df51906084016020604051808303816000875af11580156105e6573d6000803e3d6000fd5b505050506040513d601f19601f8201168201806040525081019061060a91906115cb565b6001600160401b03841660009081526010602052604081206001810154600390910154929350916001600160a01b03811691600160a01b90910460ff16906106536002866115fa565b60408051841515808252921560208201819052918101879052909250908214906001600160a01b038516907f2afadff3ac4aa3323ea0a8a6161f11227b249516d9889715a4eae4a1993137ea9060600160405180910390a26001600160a01b0384166000908152600f60209081526040808320805467ffffffffffffffff199081169091556001600160401b038c168452601090925282208054909116815560018101829055600281019190915560030180546001600160a81b031916905561071d338483610d9e565b6107288486836111f9565b80156107a95760006001600160a01b038516610745876002611624565b604051600081818185875af1925050503d8060008114610781576040519150601f19603f3d011682016040523d82523d6000602084013e610786565b606091505b50509050806107a75760405162461bcd60e51b815260040161054b90611641565b505b5050505050505050565b6107bb6113a8565b600080546040516001600160a01b039091169047908381818185875af1925050503d8060008114610808576040519150601f19603f3d011682016040523d82523d6000602084013e61080d565b606091505b505090508061082e5760405162461bcd60e51b815260040161054b90611641565b50565b6003816006811061084157600080fd5b0154905081565b6108506113a8565b61085d6003826006611425565b5050565b6108696113a8565b61087360006113d5565b565b61087d6113a8565b600955565b336000908152600f60205260409020546001600160401b0316156108f35760405162461bcd60e51b815260206004820152602260248201527f6163636f756e7473206d75737420666c69702061667465722061206465706f736044820152611a5d60f21b606482015260840161054b565b6009544710156109455760405162461bcd60e51b815260206004820152601c60248201527f666c697070696e672069732063757272656e746c792070617573656400000000604482015260640161054b565b600354341480610956575060045434145b80610962575060055434145b8061096e575060065434145b8061097a575060075434145b80610986575060085434145b6109c85760405162461bcd60e51b81526020600482015260136024820152721a5b9d985b1a5908199b1a5c08185b5bdd5b9d606a1b604482015260640161054b565b600254600b54604051631711922960e31b81526001600160a01b03918216600482015260009291909116906393cbf21790829063b88c914890602401602060405180830381865afa158015610a21573d6000803e3d6000fd5b505050506040513d601f19601f82011682018060405250810190610a45919061166a565b600b5460405160e084901b6001600160e01b03191681526001600160a01b03909116600482015260248101879052600160448201526001600160801b03919091169060640160206040518083038185885af1158015610aa8573d6000803e3d6000fd5b50505050506040513d601f19601f82011682018060405250810190610acd9190611693565b6040805160a0810182526001600160401b038381168083523460208085019182528486018b815233606087018181528b1515608089019081526000878152601086528a812099518a54991667ffffffffffffffff19998a16178a55955160018a015592516002890155516003909701805492511515600160a01b026001600160a81b03199093166001600160a01b039098169790971791909117909555848252600f815290859020805490931682179092559251928352929350917f0ee94a97c7c69ce2eb8cfb09bacc78d63a73b5e0fbed0d13a079190ff876ae3a910160405180910390a250505050565b610bc16113a8565b6001546001600160a01b031663662aa11d30610be56000546001600160a01b031690565b6040516001600160e01b031960e085901b1681526001600160a01b039283166004820152911660248201526044016020604051808303816000875af1158015610c32573d6000803e3d6000fd5b505050506040513d601f19601f8201168201806040525081019061082e91906115cb565b610c5e6113a8565b6001600160a01b0381166000818152600f60209081526040808320546001600160401b0316835260109091528082206001015490519192918381818185875af1925050503d8060008114610cce576040519150601f19603f3d011682016040523d82523d6000602084013e610cd3565b606091505b5050905080610cf45760405162461bcd60e51b815260040161054b90611641565b506001600160a01b03166000818152600f6020818152604080842080546001600160401b0316855260108352908420805467ffffffffffffffff1990811682556001820186905560028201869055600390910180546001600160a81b0319169055949093525280549091169055565b610d6b6113a8565b6001600160a01b038116610d9557604051631e4fbdf760e01b81526000600482015260240161054b565b61082e816113d5565b306000818152600e602052604090208054600281901b620ffffc1663ffffffff1990911617905581610dd1576000610dd4565b60015b60ff16600184610de5576000610de8565b60015b6001600160a01b038481166000908152600e6020526040808220805463ffffffff1980821663ffffffff92831660ff9890981690981b9890981716949094179490941790925587168152208054600281901b620ffffc16921691909117905581610e53576000610e56565b60015b60ff16600184610e67576000610e6a565b60015b6001600160a01b0387166000908152600e60205260409020805463ffffffff19811663ffffffff91821660ff9490941690941b9490941793909316171790819055600160a01b9004600781901c60019081161490607f168415610f6c576001600160a01b0383166000908152600e602052604090208054600160601b900463ffffffff1690600c610efa836116b0565b82546101009290920a63ffffffff8181021990931691831602179091556001600160a01b0388166000908152600e602052604090208054600160601b90049091169150600c610f48836116b0565b91906101000a81548163ffffffff021916908363ffffffff1602179055505061100d565b6001600160a01b0383166000908152600e602052604090208054600160801b900463ffffffff16906010610f9f836116b0565b82546101009290920a63ffffffff8181021990931691831602179091556001600160a01b0388166000908152600e602052604090208054600160801b900490911691506010610fed836116b0565b91906101000a81548163ffffffff021916908363ffffffff160217905550505b8315611107576001600160a01b0383166000908152600e602052604090208054640100000000900463ffffffff16906004611047836116b0565b82546101009290920a63ffffffff8181021990931691831602179091556001600160a01b0388166000908152600e602052604090208054640100000000900490911691506004611096836116b0565b91906101000a81548163ffffffff021916908363ffffffff1602179055505081156110cd57806110c5816116d3565b9150506110d1565b5060015b6001600160a01b0386166000908152600e60205260409020805460ff60a01b1916600160a01b6080841760ff16021790556111f1565b6001600160a01b0383166000908152600e602052604090208054600160401b900463ffffffff1690600861113a836116b0565b82546101009290920a63ffffffff8181021990931691831602179091556001600160a01b0388166000908152600e602052604090208054600160401b900490911691506008611188836116b0565b91906101000a81548163ffffffff021916908363ffffffff16021790555050816111be57806111b6816116d3565b9150506111c2565b5060015b6001600160a01b0386166000908152600e60205260409020805460ff60a01b1916600160a01b60ff8416021790555b505050505050565b801561122e576001600160a01b0383166000908152600d602052604081208054600a92906112289084906116f2565b90915550505b61123f66038d7ea4c6800083611705565b6001600160a01b0384166000908152600d6020526040812080549091906112679084906116f2565b90915550506001600160a01b0383166000908152600d60205260409020546101f4116113a3576001600160a01b0383166000908152600c602052604081205490036112f857600a80546001810182556000919091527fc65a7bb8d6351c1cf70c95a316cc6a92839c986682d98bc35f958f4883f9d2a80180546001600160a01b0319166001600160a01b0385161790555b6001600160a01b0383166000908152600c602052604081208054600192906113219084906116f2565b90915550506001600160a01b0383166000908152600d6020526040812080546101f49290611350908490611719565b90915550506001600160a01b0383166000818152600c60209081526040918290205491519182527f91e51c29e7e87a74ad3b8ccba98538970f50a4309242735467f41e27c6b0fbac910160405180910390a25b505050565b6000546001600160a01b031633146108735760405163118cdaa760e01b815233600482015260240161054b565b600080546001600160a01b038381166001600160a01b0319831681178455604051919092169283917f8be0079c531659141344cd1fd0a4f28419497f9722a3daafe3b4186f6b6457e09190a35050565b8260068101928215611453579160200282015b82811115611453578251825591602001919060010190611438565b5061145f929150611463565b5090565b5b8082111561145f5760008155600101611464565b60006020828403121561148a57600080fd5b5035919050565b6001600160401b038116811461082e57600080fd5b600080604083850312156114b957600080fd5b82356114c481611491565b946020939093013593505050565b600060c082840312156114e457600080fd5b82601f8301126114f357600080fd5b60405160c081018181106001600160401b038211171561152357634e487b7160e01b600052604160045260246000fd5b6040528060c084018581111561153857600080fd5b845b8181101561155257803583526020928301920161153a565b509195945050505050565b60006020828403121561156f57600080fd5b81356001600160a01b038116811461158657600080fd5b9392505050565b6000806000606084860312156115a257600080fd5b8335925060208401359150604084013580151581146115c057600080fd5b809150509250925092565b6000602082840312156115dd57600080fd5b5051919050565b634e487b7160e01b600052601260045260246000fd5b600082611609576116096115e4565b500690565b634e487b7160e01b600052601160045260246000fd5b808202811582820484141761163b5761163b61160e565b92915050565b6020808252600f908201526e1d1c985b9cd9995c8819985a5b1959608a1b604082015260600190565b60006020828403121561167c57600080fd5b81516001600160801b038116811461158657600080fd5b6000602082840312156116a557600080fd5b815161158681611491565b600063ffffffff8083168181036116c9576116c961160e565b6001019392505050565b600060ff821660ff81036116e9576116e961160e565b60010192915050565b8082018082111561163b5761163b61160e565b600082611714576117146115e4565b500490565b8181038181111561163b5761163b61160e56fea264697066735822122022384531016c92496a467ce34160dc0c04b2087c4d279f92b6f05786b369d3d764736f6c63430008140033","linkReferences":{}},"methodIdentifiers":{"amounts(uint256)":"45f0a44f","claimGas()":"a95d6b1c","deposit(bytes32,bytes32,bool)":"a7b10884","entropyProvider()":"5bf414ac","experience(address)":"d16ef1b5","flip(uint64,bytes32)":"31eac793","level(address)":"d41b6db6","levelOneOrHigher(uint256)":"00645777","manualReset(address)":"cedc2911","owner()":"8da5cb5b","renounceOwnership()":"715018a6","requests(uint256)":"81d12c58","sequenceNumbers(address)":"e1fab227","setFlipAmounts(uint256[6])":"5382fc26","setThreshold(uint256)":"960bfe04","stats(address)":"8bcdcbf3","threshold()":"42cde4e8","transferOwnership(address)":"f2fde38b","withdraw()":"3ccfd60b"},"id":22}